:020000040800F2
:10000000802700209D010008A5010008A701000825
:10001000A9010008AB010008AD01000800000000C4
:10002000000000000000000000000000AF01000818
:10003000B101000800000000B3010008B506000887
:10004000B7010008B7010008B7010008B7010008B0
:10005000B7010008B7010008B7010008B7010008A0
:10006000B7010008B7010008B70100084304000801
:10007000B7010008B7010008B7010008B701000880
:10008000B7010008B7010008B7010008B701000870
:10009000B7010008B7010008B7010008B701000860
:1000A000B7010008BF060008B7010008B701000843
:1000B000B7010008B7010008B7010008B701000840
:1000C000B7010008B7010008B7010008B701000830
:1000D000B7010008B7010008B7010008B701000820
:1000E000B7010008B7010008B7010008B701000810
:1000F000B7010008B7010008B7010008B701000800
:10010000000000000000000000000000B70100082F
:10011000B7010008B7010008B7010008B7010008DF
:10012000C5050008B7010008B7010008B7010008BD
:10013000B7010008B701000800000000000000003F
:10014000B7010008B7010008B7010008000000006F
:10015000000000000000000000000000000000009F
:100160000000000000000000B7010008B70100080F
:10017000B7010008000000000000000000000000BF
:1001800000000000B7010008DFF80CD000F0ACFC64
:1001900000480047CB06000880270020064880471B
:1001A00006480047FEE7FEE7FEE7FEE7FEE7FEE75C
:1001B000FEE7FEE7FEE7FEE7C1010008890100084F
:1001C0004F4882B0016841F4700101604D480168F8
:1001D00041F00101016041684B4A114041600168F2
:1001E00021F4102121F080710160016821F4802147
:1001F0000160416821F4FE014160C16A21F00F01F4
:10020000C162016B414A1140016300228260019288
:100210000092016841F480310160016801F400310D
:1002200000910199491C0191009919B90199B1F501
:10023000A04FF2D1016811F4003F08BF009229D00D
:100240000121334A009112211160416841604168E7
:100250004160416841F480614160416821F47C1152
:100260004160416841F4E8114160016841F08071EA
:100270000160016811F0007FFBD0416821F00301AB
:100280004160416841F002014160416801F00C01A8
:100290000829FAD11F494FF00060086002B070478A
:1002A000184910B448681C4A10F00C031B4818BFCA
:1002B000042B19D0082B17D14B68D1F804C003F4D4
:1002C00070134FF002041CF4803F04EB934304BF0F
:1002D000134A5A4308D0D1F82CC00CF00F0C0CF183
:1002E000010CB2FBFCF25A43026049680D4AC1F3AB
:1002F0000311515C026822FA01F1016010BC7047E1
:1003000088ED00E0001002400CC07FF8CCFC00FF3C
:100310000020024008ED00E000127A0000000020FA
:1003200000093D00040000202DE9F003D0F8008012
:10033000DDE90765069F4FEA410C032404FA0CF43B
:1003400028EA040802FA0CF948EA0908C0F8008013
:10035000012A18BF022A11D1B0F804804FF0010918
:1003600009FA01F928EA09088B4048EA0303838067
:10037000836807FA0CF7A3433B438360C36806FA1C
:100380000CFCA34343EA0C03C360022A1CBFBDE874
:10039000F0037047CA0800EB8200026A4907C90EE1
:1003A0000F238B409A4305FA01F111430162BDE826
:1003B000F0037047FE4970B4A1FB00214908A1EB8E
:1003C000810101444AF6AB22504389B2400C012915
:1003D00008BF411C03D00229014608BF481CB1F5E3
:1003E000F07F9DBFF02201F1F00CF24BA1F5F0720D
:1003F00084BF4FF0F00CF04BF0289DBF4FF4F0712C
:1004000000F5F075ED4CA0F1F00184BF4FF4F075EC
:10041000EB4CEC4E3260321DC2F800C0EA4A136069
:10042000EA4A1160111D0D60E9490C60E949486311
:1004300070BC7047E8490860E84900F5B47008608E
:1004400070472DE9F043E64C002141F288322069E3
:100450008C46401C206190420BD3E248C4F810C087
:10046000828A12F4804F14BF4FF080424FF48042D2
:10047000826194F80090DFF87083DC4D4FF4B4771C
:10048000B9F1000F33D0B9F1020F27D1B8F800103D
:10049000B8F802C0002240465FF0B30330F8046FA2
:1004A0006144B0F802C032445B1EF7D18818B8F836
:1004B000CE120844B43090FBF7F0A0614FF0A0409A
:1004C000816841F010018160816811F0100FFBD14B
:1004D00040210163816841F004018160A9F10100BC
:1004E0002070686840F001006860BDE8F08328680B
:1004F00010F0040F19BF00224FF4B4734FF4B4721C
:10050000530008EB4200801E9A1A12F0010F18BF28
:1005100030F8021F0023C2F34F0242B14688521E38
:10052000314430F8046F12043344120CF6D1C81869
:10053000B43090FBF7F04BF680314143A06901EBFA
:100540005001B1FBF0F6606840F27441801B4843F3
:1005500042F2107190FBF1F0E1680844E06000287D
:10056000B8BFC4F80CC003DBA1498142B8BFE16049
:10057000E0684FF47A7700F5FA7090FBF7F080B2FC
:10058000FFF718FFE1699B4AC8B2DFF86CC242F876
:100590002060E26802F5FA7393FBF7F34CF8203021
:1005A00002F558724FF4D86392FBF3F20CF5006336
:1005B00043F82020481CE061686840F00100686052
:1005C000BDE8F0838D4830B40068002110F0040FBE
:1005D00019BF00224FF4B4734FF4B472530088482B
:1005E00000EB4200801E9A1A12F0010F18BF30F87B
:1005F000021F0023C2F34F0252B100BFB0F802C085
:10060000521E614430F804CF12046344120CF5D139
:10061000C818B4304FF4B47390FBF3F042F677315E
:1006200000FB01F26E48816902EB5102B2FBF1F26C
:100630008168511A01EB410CCCEB411142F2107C64
:1006400091FBFCF1D0F814C0614441610029BCBFAA
:100650000021416105DBDFF8ACC18C45B8BFC0F8B3
:1006600014C0D0F814C04FF47A710CF5FA7494FBEE
:10067000F1F4594DA1B22960584D01F5B4712960CA
:10068000017F614D45F8212005F5006242F82140C7
:100690000CF1B40292FBF3F205F5805343F82120EC
:1006A000016A491C01625948016841F00101016079
:1006B00030BC70474A48416A491C416270475448FF
:1006C000016821F001010160704752484FF47A71CE
:1006D0000024006884B0B0FBF1F0401E4FF0E0252C
:1006E000B0F1807F06D268614B49F0200870AC61A0
:1006F00007202861DFF82481D8F8140040F4003086
:10070000C8F81400D8F8140040F48020C8F8140089
:10071000D8F8140040F40010C8F814000023009426
:100720000194032219464FF090400294FFF7FCFD1C
:10073000009401940023032201214FF09040029481
:10074000FFF7F2FD009401940023032204214FF0EF
:1007500090400294FFF7E8FD05270094CDE901479A
:100760000023022206212E48FFF7DEFD0A20009416
:10077000CDE901400023022209212948FFF7D4FDD9
:1007800001260094CDE90146002302220E212448CF
:10079000FFF7CAFD02200094CDE901400246002384
:1007A0000F211F48FFF7C0FD02200023024639E059
:1007B000ABAAAAAA5060010040700100586801006D
:1007C00048780100342C0140182C01403C2C014099
:1007D0001C2C0140004001403434014040340140B1
:1007E00014000020001000483C00002000000240DF
:1007F000005E1A007C0B00207C13002000040240E5
:10080000DC05002000E204007C0F0020040402400C
:10081000102C01400000002023ED00E000100240F9
:10082000000400480094CDE9014008219348FFF7F7
:100830007BFD02200094CDE90140024600230921FE
:100840008E48FFF771FD02200094CDE90140024679
:1008500000230C218948FFF767FD02200094CDE9B1
:100860000140024600230D218448FFF75DFD0094FE
:100870000194002301220E2180480294FFF754FDC9
:1008800000940194002301220F217C480294FFF779
:100890004BFDD8F8140040F00100C8F81400784966
:1008A0004FF43470C860764A7649116176495161D7
:1008B00040F2A75191604FF0E023D214C3F8002119
:1008C000D8F8142042F00202C8F814206F4A1060D1
:1008D000121D6F481060121D6E4810606E48016056
:1008E00018223006191DC1F80001D8F8140040F094
:1008F0008050C8F8140038074FF48201C0F808137C
:100900004261910581614FF49061016342F20303FA
:10091000C36084604FF0805CC0F808C000BF00BFB7
:10092000612100BF491EFCD2816841F00041816015
:10093000816811F0004FFBD1816841F001018160B5
:10094000016811F0010FFBD0816841F00401816062
:10095000C0F814214021C0F83011C0F80C31C0F8A3
:100960000841C0F808C100BF00BF612400BF641E79
:10097000FCD2D0F8081141F00041C0F8081100BFC6
:10098000D0F8081111F0004FFAD1D0F8081141F059
:100990000101C0F8081100BFD0F8001111F0010FDB
:1009A000FAD0D0F8081141F00401C0F808113B4812
:1009B000816941F400618161394A0421116039493A
:1009C00040F2CF220A60384940F205530B603749A4
:1009D00048F2300CC1F800C03549B1F8008048F049
:1009E0000108A1F80080816941F4803181613149B9
:1009F0004FF02008C1F80480CA620F6260278F613F
:100A0000C1F844C0B1F800C04CF0010CA1F800C01E
:100A1000816941F4005181612748026027480360E1
:100A200027480760284927480860284900120860BD
:100A300027494FF4004008602648018841F0010131
:100A40000180254806604FF00070C5F80001D820ED
:100A5000FFF7B0FC2149B420086021494FF407702A
:100A600008602048416A0029FCD0491E641C41628C
:100A7000B4F57A7F28BF0024F4E700000010004896
:100A800000000240400000503C0000200C040240E6
:100A900040010050DC050020080402400010024024
:100AA000082C01402C2C0140202C0140442C0140FA
:100AB000002C0140004001402C3401402034014012
:100AC00018340140586801001C3401403C34014096
:100AD00044340140003401400C2C014034340140C6
:100AE0004034014014000020064C074D06E0E06849
:100AF00040F0010394E8070098471034AC42F6D365
:100B0000FFF746FB2C0B00084C0B000802E008C85E
:100B1000121F08C1002AFAD170477047002001E077
:100B200001C1121F002AFBD1704700004C0B0008C6
:100B3000000000203C0000000C0B0008880B00089F
:100B40003C000020442700001C0B000800A24A04BF
:100B5000000000000000000001020304060708096D
:100B60000200000010270000E02E0000000000003E
:100B70000000000000000000000000000000000075
:080B800000000000000000006D
:040000050800018965
:00000001FF
