:020000040800F2
:10000000802700209D010008A5010008A701000825
:10001000A9010008AB010008AD01000800000000C4
:10002000000000000000000000000000AF01000818
:10003000B101000800000000B3010008110700082A
:10004000B7010008B7010008B7010008B7010008B0
:10005000B7010008B7010008B7010008B7010008A0
:10006000B7010008B7010008B7010008250400081F
:10007000B7010008B7010008B7010008B701000880
:10008000B7010008B7010008B7010008B701000870
:10009000B7010008B7010008B7010008B701000860
:1000A000B70100081B070008B7010008B7010008E6
:1000B000B7010008B7010008B7010008B701000840
:1000C000B7010008B7010008B7010008B701000830
:1000D000B7010008B7010008B7010008B701000820
:1000E000B7010008B7010008B7010008B701000810
:1000F000B7010008B7010008B7010008B701000800
:10010000000000000000000000000000B70100082F
:10011000B7010008B7010008B7010008B7010008DF
:1001200021060008B7010008B7010008B701000860
:10013000B7010008B701000800000000000000003F
:10014000B7010008B7010008B7010008000000006F
:10015000000000000000000000000000000000009F
:100160000000000000000000B7010008B70100080F
:10017000B7010008000000000000000000000000BF
:1001800000000000B7010008DFF80CD000F00EFD01
:1001900000480047270700088027002006488047BE
:1001A00006480047FEE7FEE7FEE7FEE7FEE7FEE75C
:1001B000FEE7FEE7FEE7FEE7C1010008890100084F
:1001C0004F4882B0016841F4700101604D480168F8
:1001D00041F00101016041684B4A114041600168F2
:1001E00021F4102121F080710160016821F4802147
:1001F0000160416821F4FE014160C16A21F00F01F4
:10020000C162016B414A1140016300228260019288
:100210000092016841F480310160016801F400310D
:1002200000910199491C0191009919B90199B1F501
:10023000A04FF2D1016811F4003F08BF009229D00D
:100240000121334A009112211160416841604168E7
:100250004160416841F480614160416821F47C1152
:100260004160416841F4E8114160016841F08071EA
:100270000160016811F0007FFBD0416821F00301AB
:100280004160416841F002014160416801F00C01A8
:100290000829FAD11F494FF00060086002B070478A
:1002A000184910B448681C4A10F00C031B4818BFCA
:1002B000042B19D0082B17D14B68D1F804C003F4D4
:1002C00070134FF002041CF4803F04EB934304BF0F
:1002D000134A5A4308D0D1F82CC00CF00F0C0CF183
:1002E000010CB2FBFCF25A43026049680D4AC1F3AB
:1002F0000311515C026822FA01F1016010BC7047E1
:1003000088ED00E0001002400CC07FF8CCFC00FF3C
:100310000020024008ED00E000127A0000000020FA
:1003200000093D00040000202DE9F003D0F8008012
:10033000DDE90765069F4FEA410C032404FA0CF43B
:1003400028EA040802FA0CF948EA0908C0F8008013
:10035000012A18BF022A11D1B0F804804FF0010918
:1003600009FA01F928EA09088B4048EA0303838067
:10037000836807FA0CF7A3433B438360C36806FA1C
:100380000CFCA34343EA0C03C360022A1CBFBDE874
:10039000F0037047CA0800EB8200026A4907C90EE1
:1003A0000F238B409A4305FA01F111430162BDE826
:1003B000F0037047FE4910B44863FE4AF021131D54
:1003C000DFF8F4C3B0F5F07F05D8116000F1F0015B
:1003D0001960FA4904E0A0F5F07414601960F84956
:1003E000CCF80010F84BF7494FF4F07203F1040C0D
:1003F000F02808D8F54C0C601A6000F5F070CCF8C5
:10040000000010BC7047F24C0C60F0381860CCF85B
:10041000002010BC7047EF490860EF4900F5B47048
:10042000086070472DE9F003EC4C002141F288325E
:1004300020698C46401C206190420BD3E848C4F8E8
:1004400010C0828A12F4804F14BF4FF080424FF4E4
:100450008042826194F80080DFF88893E24D4FF487
:10046000B477B8F1000F33D0B8F1020F26D1B9F844
:100470000010B9F802C000224846B32330F8046FD8
:100480006144B0F802C032445B1EF7D18818B9F855
:10049000CE120844B43090FBF7F0A0614FF0A040BA
:1004A000816841F010018160816811F0100FFBD16B
:1004B00040210163816841F004018160A8F10100DD
:1004C0002070686840F001006860BDE8F003704784
:1004D000286810F0040F19BF00224FF4B4734FF4D2
:1004E000B472530009EB4200801E9A1A12F0010FF9
:1004F00018BF30F8021F0023C2F34F0242B14688F2
:10050000521E314430F8046F12043344120CF6D1F9
:10051000C818B0F5342FD8BF00210ADDB34908440C
:1005200090FBF7F0B2494143A06901EB5001B1FBE8
:10053000F0F160684FF4BE72401A504342F21072FC
:1005400090FBF2F0E2681044E0600028B8BFC4F805
:100550000CC003DBA74A8242B8BFE260E3684FF4F5
:100560007A7003F5FA7292FBF0F2DFF844C290B2AF
:10057000CCF834008F4EDFF84082371D4FF0F00C7E
:10058000B0F5F07F08D8C6F800C000F1F00CC7F84D
:1005900000C0DFF828C207E0A0F5F079C6F80090A7
:1005A000C7F800C0DFF818C2C8F800C0864F854EF3
:1005B0004FF4F07C07F10408F0280AD8DFF80C9219
:1005C000C6F80090C7F800C000F5F070C8F8000049
:1005D00007E0DFF8FC91C6F80090F0383860C8F802
:1005E00000C0D4F81CC0844E0CF0FF0046F8201068
:1005F00006F5006141F8202003F5B4714FF4347220
:1006000091FBF2F106F5805242F820100CF1010046
:10061000E061686840F001006860BDE8F003704781
:10062000764830B40068002110F0040F19BF002292
:100630004FF4B4734FF4B4725300714800EB4200AE
:10064000801E9A1A12F0010F18BF30F8021F002303
:10065000C2F34F0252B100BFB0F802C0521E614453
:1006600030F804CF12046344120CF5D1C818B4302A
:100670004FF4B47390FBF3F042F6773100FB01F2D4
:100680005648816902EB5102B2FBF1F28168511ABE
:1006900001EB410CCCEB411142F2107C91FBFCF1DF
:1006A000D0F814C0614441610029BCBF0021416100
:1006B00005DBDFF850C18C45B8BFC0F814C0D0F8D6
:1006C00014C04FF47A710CF5FA7494FBF1F4414DB7
:1006D000A1B22960404D01F5B4712960017F4A4DF6
:1006E00045F8212005F5006242F821400CF1B402E2
:1006F00092FBF3F205F5805343F82120016A491C6F
:1007000001624248016841F00101016030BC70475C
:100710003248416A491C416270473D48016821F0F6
:100720000101016070473B484FF47A71F02700687F
:100730000024B0FBF1F0401E84B04FF0E025B0F192
:10074000807F05D2686134480770AC61072028615A
:10075000DFF8C890D9F8140040F40030C9F814004C
:10076000D9F8140040F48020C9F81400D9F8140016
:1007700040F40010C9F814000023009401940322EF
:1007800019464FF090400294FFF7CEFD009401947B
:100790000023032201214FF090400294FFF7C4FD93
:1007A000002303220094019404214FF0904037E08D
:1007B00000400140342C0140182C014050600100E1
:1007C000407001001C2C01403C2C01405868010085
:1007D00048780100343401404034014014000020C6
:1007E000001000483C00002000000240B4C0F4FFAC
:1007F00000EE020000CA08007C0B0020000402404A
:10080000DC05002000E204007C0F0020040402400C
:10081000102C01400000002023ED00E000100240F9
:100820000294FFF781FD4FF005080094CDE90148DF
:10083000002302220621BC48FFF776FD0A2000941F
:10084000CDE90140002302220921B748FFF76CFDE2
:1008500001260094CDE90146002302220E21B24870
:10086000FFF762FD02200094CDE90140024600231B
:100870000F21AD48FFF758FD02200094CDE901405B
:10088000024600230821A948FFF74EFD02200094EC
:10089000CDE90140024600230921A448FFF744FDA9
:1008A00002200094CDE90140024600230C219F481C
:1008B000FFF73AFD02200094CDE9014002460023F3
:1008C0000D219A48FFF730FD009401940023012286
:1008D0000E2196480294FFF727FD0094019400230F
:1008E00001220F2191480294FFF71EFDD9F8140050
:1008F00040F00100C9F814008D494FF43470C8600D
:100900008B4A8C4911618C49516140F2A751916029
:100910004FF0E023D214C3F80021D9F8142042F09C
:100920000202C9F81420854A1060121D8448106024
:10093000121D844810608448016018223006191D79
:10094000C1F80001D9F8140040F08050C9F8140033
:100950004FF0A0404FF48201C0F8081342619105A6
:1009600081610221C0F8B0104FF49061016342F23E
:100970000303C36084604FF0805CC0F808C000BF10
:1009800000BF612100BF491EFCD2816841F00041D7
:100990008160816811F0004FFBD1816841F0804196
:1009A0008160816841F000418160816811F0004FF1
:1009B000FBD1816841F001018160016811F0010FF4
:1009C000FBD0816841F004018160C0F8142140210E
:1009D000C0F83011C0F80C31C0F80841C0F808C1A7
:1009E00000BF00BF612100BF491EFCD2D0F8082122
:1009F00042F00042C0F80821D0F8082112F0004F60
:100A0000FAD1D0F8082142F00102C0F8082100BF55
:100A1000D0F8002112F0010FFAD0D0F8082142F0EE
:100A20000402C0F80821494A906940F400609061CE
:100A3000474B04201860474840F2CF2303604648E4
:100A400040F2055CC0F800C0444848F2300404603D
:100A50004348B0F8009049F00109A0F8009090696F
:100A600040F4803090613F484FF02009C0F8049076
:100A7000C362C0F820804FF06008C0F8188044645A
:100A8000048844F001040480946944F4005494619F
:100A9000354A1360354AC2F800C0354AC2F80080B2
:100AA000354B344A1A60DFF8D4C01312CCF800304A
:100AB000DFF8CCC04FF40043CCF80030314BB3F832
:100AC00000C04CF0010CA3F800C02F4B1E604FF08B
:100AD0000073C5F80031D82343632C4807602C4BC2
:100AE0004FF4E47018602C4B2A481860181D0260FF
:100AF0002A4A4FF4F0701060121D4FF42E701060EF
:100B0000274AB4201060274A4FF407701060264A25
:100B1000506A0028FCD0401E491C5062B1F57A7F13
:100B200028BF0021F4E7000000040048001000483E
:100B300000000240400000503C0000200C04024035
:100B400040010050DC050020080402400010024073
:100B5000082C01402C2C0140202C0140442C014049
:100B6000002C0140004001402C3401402034014061
:100B700018340140586801001C3401403C340140E5
:100B800044340140003401400C2C0140342C01401D
:100B9000382C014050600100182C01403C2C0140D1
:100BA000343401404034014014000020064C074D0D
:100BB00006E0E06840F0010394E80700984710342D
:100BC000AC42F6D3FFF7E4FAF00B0008100C000873
:100BD00002E008C8121F08C1002AFAD17047704706
:100BE000002001E001C1121F002AFBD17047000064
:100BF000100C0008000000203C000000D00B000892
:100C00004C0C00083C00002044270000E00B0008CA
:100C100000A24A04000000000000000001020304DA
:100C2000060708090200000010270000E02E00005F
:100C300000000000000000000000000000000000B4
:0C0C4000000000000000000000000000A8
:040000050800018965
:00000001FF
